:100000000C9435000C945D000C945D000C945D0024
:100010000C945D000C945D000C945D000C945D00EC
:100020000C945D000C945D000C945D000C945D00DC
:100030000C945D000C945D000C945D000C945D00CC
:100040000C94F4010C945D000C9464020C943E0238
:100050000C945D000C945D000C945D000C945D00AC
:100060000C945D000C945D008B0311241FBECFEF38
:10007000D8E0DEBFCDBF11E0A0E0B1E0E4ECF7E0F6
:1000800002C005900D92A232B107D9F721E0A2E299
:10009000B1E001C01D92A83CB207E1F710E0C5E352
:1000A000D0E004C02197FE010E94DA03C433D107D7
:1000B000C9F70E9496020C94E0030C9400008E5045
:1000C000806480937C0080917A00806480937A00C1
:1000D00080917A0086FDFCCF809178009091790024
:1000E00008953FB7F8948091270190912801A0913D
:1000F0002901B0912A0126B5A89B05C02F3F19F010
:100100000196A11DB11D3FBFBA2FA92F982F882797
:10011000BC01CD01620F711D811D911D42E0660F72
:10012000771F881F991F4A95D1F70895AF92BF9204
:10013000CF92DF92EF92FF920F931F93CF93DF93B3
:100140006C017B018B01040F151FEB015E01AE18E2
:10015000BF08C017D10759F06991D601ED91FC9104
:100160000190F081E02DC6010995892B79F7C50131
:10017000DF91CF911F910F91FF90EF90DF90CF9083
:10018000BF90AF900895FC01538D448D252F30E032
:10019000842F90E0821B930B541710F0CF96089594
:1001A00001970895FC01918D828D981761F0A28DC1
:1001B000AE0FBF2FB11D5D968C91928D9F5F9F7387
:1001C000928F90E008958FEF9FEF0895FC01918D3D
:1001D000828D981731F0828DE80FF11D858D90E0AA
:1001E00008958FEF9FEF0895FC01918D228D892F47
:1001F00090E0805C9F4F821B91098F73992708952F
:100200008BE291E00E94F40021E0892B09F420E0C8
:10021000822F089580E090E0892B29F00E94000150
:1002200081110C9400000895FC01A48DA80FB92F32
:10023000B11DA35ABF4F2C91848D90E001968F730E
:100240009927848FA689B7892C93A089B1898C912D
:10025000837080648C93938D848D981306C002887C
:10026000F389E02D80818F7D80830895EF92FF9246
:100270000F931F93CF93DF93EC0181E0888F9B8DC9
:100280008C8D98131AC0E889F989808185FF15C083
:100290009FB7F894EE89FF896083E889F9898081A6
:1002A0008370806480839FBF81E090E0DF91CF9175
:1002B0001F910F91FF90EF900895F62E0B8D10E097
:1002C0000F5F1F4F0F731127E02E8C8D8E110CC006
:1002D0000FB607FCFACFE889F989808185FFF5CF51
:1002E000CE010E941401F1CFEB8DEC0FFD2FF11D1B
:1002F000E35AFF4FF0829FB7F8940B8FEA89FB898E
:1003000080818062CFCFCF93DF93EC01888D8823EB
:10031000B9F0AA89BB89E889F9898C9185FD03C068
:10032000808186FD0DC00FB607FCF7CF8C9185FF4D
:10033000F2CF808185FFEDCFCE010E941401E9CF7D
:10034000DF91CF910895FC0101900020E9F73197EA
:10035000AF01481B590BBC018BE291E00C94960055
:100360008F929F92AF92BF920F931F93CF93DF9381
:10037000CDB7DEB7A1970FB6F894DEBF0FBECDBFE5
:1003800019A2423008F44AE08E010F5D1F4F842EFF
:10039000912CB12CA12CA50194010E94B803E62F49
:1003A000B901CA01EA30F4F4E05DD801EE938D01A1
:1003B000232B242B252B79F790E080E0109719F060
:1003C000CD010E94A301A1960FB6F894DEBF0FBE27
:1003D000CDBFDF91CF911F910F91BF90AF909F90B4
:1003E0008F900895E95CE1CF1F920F920FB60F92A4
:1003F00011242F933F938F939F93AF93BF9380913B
:10040000230190912401A0912501B0912601309102
:10041000220123E0230F2D3758F50196A11DB11DB0
:10042000209322018093230190932401A09325011E
:10043000B09326018091270190912801A091290174
:10044000B0912A010196A11DB11D809327019093BF
:100450002801A0932901B0932A01BF91AF919F91E8
:100460008F913F912F910F900FBE0F901F90189575
:1004700026E8230F0296A11DB11DD2CF1F920F9225
:100480000FB60F9211242F933F934F935F936F9367
:100490007F938F939F93AF93BF93EF93FF938BE2E1
:1004A00091E00E941401FF91EF91BF91AF919F9154
:1004B0008F917F916F915F914F913F912F910F900D
:1004C0000FBE0F901F9018951F920F920FB60F92AC
:1004D00011242F938F939F93EF93FF93E0913B0110
:1004E000F0913C018081E0914101F091420182FD57
:1004F0001BC09081809144018F5F8F7320914501D3
:10050000821741F0E0914401F0E0E55DFE4F958FE8
:1005100080934401FF91EF919F918F912F910F90C4
:100520000FBE0F901F9018958081F4CF789484B5FA
:10053000826084BD84B5816084BD85B5826085BDDF
:1005400085B5816085BD80916E00816080936E006D
:10055000109281008091810082608093810080915F
:100560008100816080938100809180008160809310
:1005700080008091B10084608093B1008091B000D0
:1005800081608093B00080917A00846080937A00CB
:1005900080917A00826080937A0080917A008160F5
:1005A00080937A0080917A00806880937A0010921C
:1005B000C100E0913B01F0913C0182E08083E09139
:1005C0003701F09138011082E0913901F0913A0140
:1005D0008FEC808310924301E0913F01F091400144
:1005E00086E08083E0913D01F0913E018081806151
:1005F0008083E0913D01F0913E018081886080839D
:10060000E0913D01F0913E01808180688083E0911E
:100610003D01F0913E0180818F7D808382E191E0F8
:100620000E94A30188E191E00E94A301C0E0D0E014
:100630008EE00E945F004C018FE00E945F006C0121
:100640008BE191E00E94A301092C000CAA08BB08D1
:100650004AE0C501B401B7FE0DC06DE28BE291E046
:100660000E94360166277727CB01681979098A0924
:100670009B094AE00E94B0018EE191E00E94A30133
:100680000D2C000CEE08FF084AE0C701B601F7FE8A
:100690000DC06DE28BE291E00E943601662777275C
:1006A000CB016C197D098E099F094AE00E94B001B7
:1006B00088E191E00E94A3010E9471004B015C015E
:1006C00084E6C82ED12CE12CF12C0E94710068190F
:1006D00079098A099B09683E734081059105A8F351
:1006E00021E0C21AD108E108F10888EE880E83E003
:1006F000981EA11CB11CC114D104E104F10429F716
:10070000209709F495CF0E940001882309F490CF27
:100710000E9400008DCFEBE2F1E01382128288EE9E
:1007200093E0A0E0B0E084839583A683B78384E060
:1007300091E09183808385EC90E09587848784ECB9
:1007400090E09787868780EC90E0918B808B81EC9E
:1007500090E0938B828B82EC90E0958B848B86EC7F
:1007600090E0978B868B118E128E138E148E0895C7
:10077000A1E21A2EAA1BBB1BFD010DC0AA1FBB1FA5
:10078000EE1FFF1FA217B307E407F50720F0A21B17
:10079000B30BE40BF50B661F771F881F991F1A9484
:1007A00069F760957095809590959B01AC01BD01AE
:1007B000CF010895EE0FFF1F0590F491E02D0994ED
:0407C000F894FFCFDB
:1007C4000000000036019600C3008301F400D2004B
:1007D400E6007265616479000D0A00583A002059F8
:0207E4003A00D9
:00000001FF
