:100000000C947B000C94A3000C94A3000C94A3000C
:100010000C94A3000C94A3000C94A3000C94A300D4
:100020000C94A3000C94A3000C94A3000C94A300C4
:100030000C94A3000C94A3000C94A3000C94A300B4
:100040000C947B080C94A3000C94EB080C94C5084A
:100050000C94A3000C94A3000C94A3000C94A30094
:100060000C941D090C94A30054656D703A2000484F
:10007000756D69646974793A20004661696C6564DC
:1000800020746F20726561642066726F6D20444831
:10009000542073656E736F7221000000000024000D
:1000A00027002A0000000000250028002B00000087
:1000B0000008000201000003040700000000000027
:1000C00000000000000023002600290004040404AE
:1000D00004040404020202020202030303030303F2
:1000E00001020408102040800102040810200102CF
:1000F000040810203C0A11241FBECFEFD8E0DEBF59
:10010000CDBF11E0A0E0B1E0E4ECF0E202C0059068
:100110000D92A038B107D9F723E0A0E8B1E001C003
:100120001D92AB30B207E1F710E0CBE7D0E004C09E
:100130002197FE010E945A10CA37D107C9F70E94C1
:10014000A30A0C9460100C940000CF92DF92EF92FF
:10015000FF92CF93DF93B091F302A0E08111AB2F18
:100160008091F40290E0880F991FAC014E535F4FCD
:10017000C090F902D090FA02E090FB02F090FC02ED
:1001800030E020E0FA01C591D491E881B90190E016
:1001900080E0EB23EA130AC02F5F3F4F6C157D050B
:1001A0008E059F0578F36FEF7FEFCB01DF91CF9145
:1001B000FF90EF90DF90CF900895833081F028F486
:1001C000813099F08230A9F008958730A9F0883005
:1001D000C9F08430B1F4809180008F7D03C080919C
:1001E00080008F7780938000089584B58F7784BDD9
:1001F000089584B58F7DFBCF8091B0008F77809379
:10020000B00008958091B0008F7DF9CFCF93DF9338
:10021000282F30E0F901E255FF4F8491F901E052B7
:10022000FF4FD491F901E453FF4FC491CC23A1F0C7
:1002300081110E94DD00EC2FF0E0EE0FFF1FEE5366
:10024000FF4FA591B491EC91ED2381E090E009F48A
:1002500080E0DF91CF91089580E090E0FACF1F9386
:10026000CF93DF93282F30E0F901E255FF4F8491BF
:10027000F901E052FF4FD491F901E453FF4FC491CB
:10028000CC23A9F0162F81110E94DD00EC2FF0E0A5
:10029000EE0FFF1FEC55FF4FA591B4918FB7F89467
:1002A000EC91111108C0D095DE23DC938FBFDF9154
:1002B000CF911F910895DE2BF8CFCF93DF9390E07D
:1002C000FC01E052FF4F249184539F4FFC01849125
:1002D0008823D1F090E0880F991FFC01E656FF4F6C
:1002E000A591B491FC01EC55FF4FC591D4916230BA
:1002F00071F49FB7F8943C91822F809583238C935F
:10030000E8812E2B28839FBFDF91CF9108958FB76F
:10031000F894EC912E2B2C938FBFF6CF1F93CF9395
:10032000DF93182FEB0161E00E945D01209739F403
:1003300060E0812FDF91CF911F910C942F01CF3F6F
:10034000D10511F461E0F5CFE12FF0E0E255FF4F68
:10035000E491E33031F140F4E130B1F0E230E1F02A
:10036000C038D1057CF7E4CFE73029F1E83059F106
:10037000E430B1F780918000806280938000D09358
:100380008B00C0938A0004C084B5806884BDC7BD5B
:10039000DF91CF911F91089584B5806284BDC8BD5F
:1003A000F7CF80918000806880938000D09389008F
:1003B000C0938800EDCF8091B00080688093B0003A
:1003C000C093B300E5CF8091B00080628093B0000D
:1003D000C093B400DDCFCF93C62F682F70E085E0C7
:1003E0000E948E016C2F70E086E00E948E0170E00A
:1003F00060E089E0CF910C948E013FB7F894809132
:100400003B0290913C02A0913D02B0913E0226B584
:10041000A89B05C02F3F19F00196A11DB11D3FBF3C
:10042000BA2FA92F982F8827BC01CD01620F711D0B
:10043000811D911D42E0660F771F881F991F4A9505
:10044000D1F708958F929F92AF92BF92CF92DF9291
:10045000EF92FF924B015C010E94FD016B017C0158
:100460000E94FD016C197D098E099F09683E734049
:1004700081059105A8F321E0821A9108A108B1082D
:1004800088EEC80E83E0D81EE11CF11C8114910493
:10049000A104B10429F7FF90EF90DF90CF90BF90B7
:1004A000AF909F908F900895CF92DF92EF92FF923E
:1004B0000F931F93CF93DF93CDB7DEB7C054D140D6
:1004C0000FB6F894DEBF0FBECDBF2FB7F894809162
:1004D0003F0290914002A0914102B09142022FBF91
:1004E0004091F5025091F6026091F7027091F80286
:1004F0008C019D01041B150B260B370BB901A801BC
:10050000403D57406105710590F48091FD02C05C4B
:10051000DE4F0FB6F894DEBF0FBECDBFDF91CF9197
:100520001F910F91FF90EF90DF90CF9008958093EF
:10053000F5029093F602A093F702B093F80210929E
:10054000F0021092EF021092EE021092ED02109261
:10055000EC0262E08091F1020E945D0161E070E0D6
:1005600080E090E00E94220261E08091F1020E940E
:100570005D0160E08091F1020E942F018091F20202
:100580008551823020F58BE291E10197F1F762E02D
:100590008091F1020E945D018091FE0290E0823024
:1005A000910538F0880F991F880F991F05970197BB
:1005B000F1F7F89480E00E94A5006F3F7F4F8F4FC6
:1005C0009F4F61F41092FD02789480E0A0CF64E127
:1005D00070E080E090E00E942202D9CF81E00E948A
:1005E000A5006F3F7F4F8F4F9F4F61F38E010F5FCD
:1005F0001F4F6E018FEBC81A8EEFD80A780180E08A
:100600000E94A500F701608371838283938381E058
:100610000E94A500F7016483758386839783F8E0C1
:10062000EF0EF11CEC14FD0451F7789430E020E05B
:10063000F801C080D180E280F380448155816681D9
:100640007781FFEFCF16DF06EF06FF0631F04F3F51
:100650008FEF58076807780719F41092FD02B5CF9D
:10066000F90183E0F595E7958A95E1F7E451FD4FAF
:100670008081880FC416D506E606F70610F1808340
:100680002F5F3F4F085F1F4F2832310589F6409199
:10069000F0022091EC028091ED02280F3327331FE6
:1006A0008091EE02280F311D8091EF02820F932F6F
:1006B000911D99274817190681F681E08093FD0264
:1006C00026CF8160DCCF08950895EF92FF920F93BB
:1006D0001F93CF93DF938C017B01D0E0C0E0F70143
:1006E000EC0FFD1F6491662361F0D801ED91FC9140
:1006F0000190F081E02DC8010995892B11F0219618
:10070000EECFCE01DF91CF911F910F91FF90EF902F
:100710000895AF92BF92CF92DF92EF92FF920F9324
:100720001F93CF93DF936C017B018B01040F151F87
:10073000EB015E01AE18BF08C017D10759F06991EF
:10074000D601ED91FC910190F081E02DC601099553
:10075000892B79F7C501DF91CF911F910F91FF9000
:10076000EF90DF90CF90BF90AF900895FC01538D34
:10077000448D252F30E0842F90E0821B930B54177B
:1007800010F0CF96089501970895FC01918D828D08
:10079000981761F0A28DAE0FBF2FB11D5D968C91A1
:1007A000928D9F5F9F73928F90E008958FEF9FEFE0
:1007B0000895FC01918D828D981731F0828DE80F9C
:1007C000F11D858D90E008958FEF9FEF0895FC0156
:1007D000918D228D892F90E0805C9F4F821B910923
:1007E0008F739927089583E492E00E94E70321E044
:1007F000892B09F420E0822F089580E090E0892B76
:1008000029F00E94F30381110C9400000895FC016B
:10081000A48DA80FB92FB11DA35ABF4F2C91848D61
:1008200090E001968F739927848FA689B7892C93BE
:10083000A089B1898C91837080648C93938D848D11
:10084000981306C00288F389E02D80818F7D808314
:100850000895EF92FF920F931F93CF93DF93EC01D4
:1008600081E0888F9B8D8C8D98131AC0E889F98957
:10087000808185FF15C09FB7F894EE89FF8960835A
:10088000E889F98980818370806480839FBF81E0DB
:1008900090E0DF91CF911F910F91FF90EF9008951D
:1008A000F62E0B8D10E00F5F1F4F0F731127E02EF8
:1008B0008C8D8E110CC00FB607FCFACFE889F98930
:1008C000808185FFF5CFCE010E940704F1CFEB8D2B
:1008D000EC0FFD2FF11DE35AFF4FF0829FB7F89404
:1008E0000B8FEA89FB8980818062CFCFCF93DF9322
:1008F000EC01888D8823B9F0AA89BB89E889F98938
:100900008C9185FD03C0808186FD0DC00FB607FC6C
:10091000F7CF8C9185FFF2CF808185FFEDCFCE019F
:100920000E940704E9CFDF91CF9108952091E8015B
:10093000260F3327331F21323105ECF420910C02AE
:10094000FC0190E080E0243069F082E00895A091FD
:10095000E8012191AC0148535E4FA40FB52FB11DA2
:100960002C930196861798F38091E801680F6093A5
:10097000E80180E0089581E0089510920C0281E082
:1009800080930E0210920D0261E082E10E942F011D
:1009900061E083E10E942F01E9EBF0E080818E7F2E
:1009A000808380818D7F808388E48093B80085E494
:1009B0008093BC000895CF93DF9391E09093C7019B
:1009C0008823B9F0C091B800D091BA008091BC00E2
:1009D0008A7B8093BC0060E082E10E942F0160E08E
:1009E00083E10E942F010E94BD04D093BA00C093FE
:1009F000B800DF91CF9108950895E0913902809178
:100A00003802E81730F4F0E0EE55FE4F808190E0B8
:100A100008958FEF9FEF08959091390280913802E9
:100A20002FEF3FEF981748F4E92FF0E0EE55FE4F17
:100A3000208130E09F5F90933902C9010895809131
:100A4000380290913902891B990B0895CF92DF9259
:100A5000EF92FF920F931F93CF93DF937C01CB0113
:100A60008A012091A101222389F0EB016B01C40EC0
:100A7000D51ECC15DD0569F06991D701ED91FC918A
:100A80000190F081E02DC7010995F3CF642F0E94FA
:100A90009604C801DF91CF911F910F91FF90EF90C5
:100AA000DF90CF900895CF93DF931F92CDB7DEB73D
:100AB00069832091A1012223F9F02091360220328E
:100AC00058F021E030E0FC013383228390E080E0A5
:100AD0000F90DF91CF91089580913702E82FF0E0D9
:100AE000EF57FE4F998190838F5F809337028093F9
:100AF000360281E090E0ECCF61E0CE0101960E94E9
:100B00009604F7CFCF92DF92EF92FF920F931F934D
:100B1000CF93DF93FC01C48121E02093A101C09316
:100B2000800110923702109236028385682B80EE86
:100B300092E00E945305D0913602D13208F092C063
:100B40000E94FD016B017C0180910C02811165C046
:100B500082E080930C0281E080930E028FEF8093FD
:100B60000B0210923002D0932F02A1E8B1E0EFE027
:100B7000F2E080E0D81385C01092310280913102FA
:100B8000CC0FC82BC093310280910D02813009F047
:100B90007CC010920D020E94FD016B017C018091CE
:100BA00031028093BB008091C3019091C401A09158
:100BB000C501B091C601892B8A2B8B2B99F00E941D
:100BC000FD010091C3011091C4012091C501309134
:100BD000C6016C197D098E099F090617170728079A
:100BE0003907E0F18091BC0083FDD9CF85EC80937B
:100BF000BC000E94FD016B017C0180910C028230DF
:100C000009F445C080910B028F3F61F180910B0286
:100C1000803241F180910B0225C08091C3019091F7
:100C2000C401A091C501B091C601892B8A2B8B2BE1
:100C300009F48ACF0E94FD010091C3011091C40103
:100C40002091C5013091C6016C197D098E099F095B
:100C5000061717072807390708F076CF8091C201D9
:100C60000E94DB0410923702109236021092A1010A
:100C7000DF91CF911F910F91FF90EF90DF90CF9078
:100C800008959D9191938F5F75CF85EEB0CF809140
:100C9000C3019091C401A091C501B091C601892BF7
:100CA0008A2B8B2B09F4A9CF0E94FD010091C3016F
:100CB0001091C4012091C5013091C6016C197D09C4
:100CC0008E099F09061717072807390708F095CFDF
:100CD000C5CF089590E080E008950F931F93CF93C0
:100CE0008C01C62F0E9482056C2F6460C8010E948F
:100CF00082056C2F6B7FC8010E94820583EC90E017
:100D00000197F1F7CF911F910F9108950F931F93C2
:100D1000CF93DF938C01D62FC42F607F642B0E946A
:100D20006D0680E1D89FB00111246C2BC801DF91C2
:100D3000CF911F910F910C946D0640E061E08FEF11
:100D400092E00E9486068BE39FE10197F1F70895F8
:100D5000CF93DF93CDB7DEB728970FB6F894DEBFF9
:100D60000FBECDBF98E0E1E0F1E0DE011196019009
:100D70000D929A95E1F790910703961708F46FEF9B
:100D8000262F30E0220F331F41E050E04C0F5D1F53
:100D9000240F351FF9016081680F606840E08FEF14
:100DA00092E028960FB6F894DEBF0FBECDBFDF915C
:100DB000CF910C94860641E00E94860681E090E087
:100DC0000895FB0101900020E9F73197AF01461B20
:100DD000570BDC01ED91FC910280F381E02D099429
:100DE0008F929F92AF92BF920F931F93CF93DF93F7
:100DF000CDB7DEB7A1970FB6F894DEBF0FBECDBF5B
:100E000019A2423008F44AE08E010F5D1F4F842E74
:100E1000912CB12CA12CA50194010E942410E62F45
:100E2000B901CA01EA3004F5E05DD801EE938D0105
:100E3000232B242B252B79F790E080E0109729F0C5
:100E4000BD018FEF92E00E94E106A1960FB6F894E3
:100E5000DEBF0FBECDBFDF91CF911F910F91BF902D
:100E6000AF909F908F900895E95CDFCFCF92DF9293
:100E7000EF92FF926C01092E000CEE08FF0897FF1D
:100E800016C041E06DE28FEF92E00E948606662771
:100E90007727CB016C197D098E099F094AE00E94D2
:100EA000F0060196FF90EF90DF90CF9008954AE012
:100EB000C701B601FF90EF90DF90CF900C94F00641
:100EC000BC018FEF92E00C94E1064F925F926F921B
:100ED0007F928F929F92AF92BF92CF92DF92EF92CA
:100EE000FF920F931F93CF936B017C01742EAC0183
:100EF0009B010E940B1069E371E0811126C046013D
:100F00005701E894B7F82FEF3FEF4FE75FE7C501D0
:100F1000B4010E940B1081110CC02FEF3FEF4FE77F
:100F20005FE7C501B4010E94410E6DE371E0181640
:100F300064F02FEF3FEF4FE75FE4C701B6010E9477
:100F4000990F1816ACF461E471E08FEF92E0CF9145
:100F50001F910F91FF90EF90DF90CF90BF90AF90D7
:100F60009F908F907F906F905F904F900C94E106D0
:100F70002FEF3FEF4FE75FECC701B6010E94410E34
:100F800087FDE1CF20E030E0A901C701B6010E9452
:100F9000410E10E000E087FF0CC041E06DE28FEFF2
:100FA00092E00E948606F7FAF094F7F8F09401E0D8
:100FB00010E0C0E060E070E080E09FE37C1641F06C
:100FC00020E030E040E251E40E94460ECF5FF6CFD1
:100FD000A70196010E94D50D4B015C010E94B80E3D
:100FE0002B013C014AE00E94F006080F191FCC2398
:100FF000C9F1C301B2010E94E70E9B01AC01C5011A
:10100000B4010E94D40D4B015C0141E06EE28FEF10
:1010100092E00E9486060F5F1F4FC15018F120E03A
:1010200030E040E251E4C501B4010E949E0F2B0163
:101030003C010E94B80E4B01B12CA12C4AE0C50125
:10104000B4010E94F006080F191FC501B4010E94E7
:10105000E70E9B01AC01C301B2010E94D40D4B010C
:101060005C01DBCFC801CF911F910F91FF90EF90F2
:10107000DF90CF90BF90AF909F908F907F906F90B8
:101080005F904F90089585ED8093BC008091C301DF
:101090009091C401A091C501B091C6010796A11D10
:1010A000B11D23E0B695A795979587952A95D1F719
:1010B0002091BC0024FD03C010920C0208954091C1
:1010C000C3015091C4016091C5017091C601452BC7
:1010D000462B472B69F30097A105B10541F02AE2A1
:1010E0002A95F1F700C00197A109B109E1CF8091DC
:1010F000C2010C94DB041F920F920FB60F921124C1
:101100002F933F938F939F93AF93BF9380913F0211
:1011100090914002A0914102B091420230913A0276
:1011200023E0230F2D3758F50196A11DB11D209303
:101130003A0280933F0290934002A0934102B09301
:10114000420280913B0290913C02A0913D02B091FD
:101150003E020196A11DB11D80933B0290933C027B
:10116000A0933D02B0933E02BF91AF919F918F91AA
:101170003F912F910F900FBE0F901F90189526E86A
:10118000230F0296A11DB11DD2CF1F920F920FB651
:101190000F9211242F933F934F935F936F937F93FD
:1011A0008F939F93AF93BF93EF93FF9383E492E06A
:1011B0000E940704FF91EF91BF91AF919F918F9192
:1011C0007F916F915F914F913F912F910F900FBE43
:1011D0000F901F9018951F920F920FB60F92112427
:1011E0002F938F939F93EF93FF93E0915302F0918E
:1011F00054028081E0915902F0915A0282FD1BC095
:10120000908180915C028F5F8F7320915D028217C5
:1012100041F0E0915C02F0E0ED5BFD4F958F809333
:101220005C02FF91EF919F918F912F910F900FBED4
:101230000F901F9018958081F4CF1F920F920FB6D8
:101240000F9211242F933F934F935F936F937F934C
:101250008F939F93AF93BF93EF93FF938091B900C8
:10126000887F803609F44AC0F0F5883209F4A7C0B7
:1012700018F5803109F49BC0B8F4882309F4F9C04B
:10128000883009F494C0FF91EF91BF91AF919F9185
:101290008F917F916F915F914F913F912F910F901F
:1012A0000FBE0F901F901895883109F488C08032C6
:1012B00051F780930B0214C0803409F49DC040F4B0
:1012C0008033B9F38833F9F680930B0285ECB0C014
:1012D000803509F485C0883509F496C0883499F6BC
:1012E0000E944308D0CF883909F48CC038F588377C
:1012F00029F050F4883611F0803729F683E0809386
:101300000C0210920A0257C0883809F47BC0803959
:1013100019F0803809F0B7CF80910A02803208F0C6
:1013200071C0E0910A0281E08E0F80930A028091E1
:10133000BB00F0E0E651FE4F80833DC0803B39F0BA
:10134000E0F4803A09F479C0883A09F09CCF84E04F
:1013500080930C021092E9011092E801E0913402AE
:10136000F091350209958091E80181110FC081E06B
:101370008093E8011092C80109C0803C09F4A6CF0F
:10138000883C09F4A3CF883B09F07DCFE091E901C7
:1013900081E08E0F8093E901F0E0E853FE4F8081F9
:1013A0008093BB009091E9018091E80129C0809170
:1013B00031028093BB0085EC8093BC0064CF909198
:1013C000300280912F02981758F5E091300281E0A9
:1013D0008E0F80933002F0E0E15FFD4F8081E9CF16
:1013E000E091300281E08E0F809330028091BB004B
:1013F000F0E0E15FFD4F80839091300280912F02F9
:101400009817C8F285E8D8CFE091300281E08E0FBE
:10141000809330028091BB00F0E0E15FFD4F80835C
:1014200080910E0281115CCF81E080930D0284EAED
:101430008093BC0010920C0226CF85EC8093BC00F8
:1014400010920C0280910A02803230F4E0910A027C
:10145000F0E0E651FE4F108260910A0270E0E091E8
:101460003202F09133028AEE91E0099510920A025D
:101470000ACF10920B0234CFE3E4F2E0138212821F
:1014800088EE93E0A0E0B0E084839583A683B783E1
:101490002DE031E03183208325EC30E0358724874F
:1014A00024EC30E03787268720EC30E0318B208B2E
:1014B00021EC30E0338B228B22EC30E0358B248B17
:1014C00026EC30E0378B268B118E128E138E148E05
:1014D000E0EEF2E01382128284839583A683B783C1
:1014E0008FE191E091838083EFEFF2E0138212822B
:1014F00081E391E09183808387E2848380E1818727
:1015000082E082871386ACEEB2E015968C93159735
:101510008BE016968C931697E2EEF0E0E491179626
:10152000EC931797EEECF0E0E4911896EC93189793
:1015300040E85EE360E070E01D964D935D936D932F
:101540007C9350970895789484B5826084BD84B567
:10155000816084BD85B5826085BD85B5816085BDAE
:1015600080916E00816080936E0010928100809166
:1015700081008260809381008091810081608093EE
:101580008100809180008160809380008091B10013
:1015900084608093B1008091B00081608093B0003E
:1015A00080917A00846080937A0080917A008260D2
:1015B00080937A0080917A00816080937A00809194
:1015C0007A00806880937A001092C10010923902EC
:1015D0001092380210923702109236020E94BD0417
:1015E00083E693E0909335028093340284E693E09F
:1015F0009093330280933202109204038091090386
:10160000823018F098E0909304038093070362E31C
:1016100070E080E090E00E94220260910A038FEF68
:1016200092E00E94820568EE73E080E090E00E9404
:10163000220260E38FEF92E00E946D06CBE4D6E4D5
:10164000CE010197F1F760E38FEF92E00E946D0603
:101650002197F1F760E38FEF92E00E946D0683E53A
:1016600092E00197F1F760E28FEF92E00E946D0641
:1016700060910403606240E08FEF92E00E94860672
:1016800084E08093050340E06CE08FEF92E00E94DD
:1016900086060E949D06C2E0C093060340E066E015
:1016A0008FEF92E00E94860640E062E08FEF92E0CA
:1016B0000E9486068BE39FE10197F1F788E0809313
:1016C0000A0360E08FEF92E00E94820561E085E00E
:1016D0000E945D0161E086E00E945D0161E089E0B9
:1016E0000E945D0162E088E00E945D0162E084E0AA
:1016F0000E945D01E0915302F0915402C083E09199
:101700004F02F09150021082E0915102F09152028A
:101710008FEC808310925B02E0915702F0915802A7
:1017200086E08083E0915502F091560280818061CD
:101730008083E0915502F091560280818860808319
:10174000E0915502F0915602808180688083E0919B
:101750005502F091560280818F7D808362E08091F6
:10176000F1020E945D012FB7F89480913F029091A1
:101770004002A0914102B09142022FBF805D97408C
:10178000A109B1098093F5029093F602A093F702A4
:10179000B093F80287E38093FE0232E4632E0AE0FE
:1017A00010E0C0E0D0E05524539488E00E94060188
:1017B0006C0184E00E9406017C01CD2821F40E9486
:1017C0009D0610920001EF2811F4509200018091C3
:1017D0000001882309F4BEC060ED77E080E090E06E
:1017E0000E9422020E945402882349F08091F20252
:1017F0008B3028F08D3050F085518230C8F1812C2B
:10180000912C20ECA22E2FE7B22E1EC06091ED028B
:1018100070E090E080E00E94E90E2DEC3CEC4CEC96
:101820005DE30E949E0F6B017C016091EC0270E011
:1018300090E080E00E94E90E9B01AC01C701B60177
:101840000E94D50D4B015C010E945402882309F4CB
:1018500075C08091F2028C3009F4CDC0D8F48B3081
:1018600091F1C12CD12C80ECE82E8FE7F82E55C0D9
:101870006091EC027091ED0276276727762790E061
:1018800080E00E94E70E2DEC3CEC4CEC5DE30E9406
:101890009E0FD8CF8551823020F77090EE02672DD1
:1018A00070E0762F662766277F778091EF02682B9E
:1018B00090E080E00E94E70E2DEC3CEC4CEC5DE308
:1018C0000E949E0FB4C06091EE0270E090E080E054
:1018D0000E94E70E6B017C017090EF0277FE0AC058
:1018E000AC019B0160E070E080E89FEB0E94D40DAA
:1018F0006B017C01672D6F7070E090E080E00E94CA
:10190000E90E2DEC3CEC4CEC5DE30E949E0FA70130
:1019100096010E94D50D6B017C01A5019401C501C2
:10192000B4010E940B10811109C0A7019601C701E3
:10193000B6010E940B10882309F482C06AE770E0A8
:1019400083E492E00E94650365E471E083E492E041
:101950000E94E10680910001811142C060927C00EA
:1019600080917A00806480937A0080917A0086FD6D
:10197000FCCF8091780090917900B8010E941010FE
:101980007B01643171050CF09CC00E949D0660E0F3
:1019900080E00E94A8068CE491E00E94600760E06D
:1019A00087E00E94A806C7010E94360760E08AE02F
:1019B0000E94A80688E491E00E94600761E080E050
:1019C0000E94A80684E591E00E94600760E08FEF26
:1019D0000E94EB0168EC70E080E090E00E9422023F
:1019E000209709F4E2CE0E94F303882309F4DDCEA8
:1019F0000E940000DACE7090EE02672D70E090E059
:101A000080E00E94E70E6B017C016091EF026F7035
:101A100070E090E080E00E94E90E2DEC3CEC4CEC94
:101A20005DE30E949E0FA70196010E94D50D6B01F8
:101A30007C0177FE72CFF7FAF094F7F8F0946DCF4F
:101A40000E949D0660E080E00E94A8066FE670E0BC
:101A50008FEF92E00E94650360E08AE00E94A80692
:101A6000A5019401C501B4010E94D50D42E00E9478
:101A7000650760E08FE00E94A80688E491E00E947C
:101A8000600761E080E00E94A80668E670E08FEFE2
:101A900092E00E94650361E086E00E94A806A7012B
:101AA0009601C701B6010E94D50D42E00E9465076C
:101AB00061E08CE00E94A8068AE491E00E94600741
:101AC00049CFCB0144974E9718F50E949D0660E0E0
:101AD00080E00E94A8068CE491E00E94600760E02C
:101AE00087E00E94A806C7010E94360760E08AE0EE
:101AF0000E94A80688E491E00E94600761E080E00F
:101B00000E94A8068DE591E00E94600760E85FCF23
:101B1000CB01C2974E9718F50E949D0660E080E0C9
:101B20000E94A8068CE491E00E94600760E087E0D4
:101B30000E94A806C7010E94360760E08AE00E9462
:101B4000A80688E491E00E94600761E080E00E94BE
:101B5000A80687E691E00E9460076FEF38CF0E94E9
:101B60009D0660E080E00E94A8068CE491E00E945F
:101B7000600760E087E00E94A806C70102970E9404
:101B8000360760E08AE00E94A80688E491E00E949F
:101B9000600761E080E00E94A80684E791E00E946F
:101BA00060076FEF80E014CF5058BB27AA270E9430
:101BB000EC0D0C945F0F0E94510F38F00E94580FEB
:101BC00020F039F49F3F19F426F40C944E0F0EF4D4
:101BD000E095E7FB0C94480FE92F0E94700F58F333
:101BE000BA17620773078407950720F079F4A6F502
:101BF0000C94920F0EF4E0950B2EBA2FA02D0B0132
:101C0000B90190010C01CA01A0011124FF27591B41
:101C100099F0593F50F4503E68F11A16F040A22F47
:101C2000232F342F4427585FF3CF469537952795B8
:101C3000A795F0405395C9F77EF41F16BA0B620BB7
:101C4000730B840BBAF09150A1F0FF0FBB1F661FFE
:101C5000771F881FC2F70EC0BA0F621F731F841F41
:101C600048F4879577956795B795F7959E3F08F067
:101C7000B0CF9395880F08F09927EE0F9795879529
:101C800008950E94240F08F481E008950E945A0EDE
:101C90000C945F0F0E94580F58F00E94510F40F0B3
:101CA00029F45F3F29F00C94480F51110C94930FC5
:101CB0000C944E0F0E94700F68F39923B1F35523D3
:101CC00091F3951B550BBB27AA276217730784074F
:101CD00038F09F5F5F4F220F331F441FAA1FA9F3E5
:101CE00035D00E2E3AF0E0E832D091505040E695D3
:101CF000001CCAF72BD0FE2F29D0660F771F881F34
:101D0000BB1F261737074807AB07B0E809F0BB0B26
:101D1000802DBF01FF2793585F4F3AF09E3F51053A
:101D200078F00C94480F0C94930F5F3FE4F3983EC7
:101D3000D4F3869577956795B795F7959F5FC9F723
:101D4000880F911D9695879597F90895E1E0660FA4
:101D5000771F881FBB1F621773078407BA0720F01D
:101D6000621B730B840BBA0BEE1F88F7E095089586
:101D70000E94780F88F09F5798F0B92F9927B75194
:101D8000B0F0E1F0660F771F881F991F1AF0BA951F
:101D9000C9F714C0B13091F00E94920FB1E00895DC
:101DA0000C94920F672F782F8827B85F39F0B93FCE
:101DB000CCF3869577956795B395D9F73EF49095D2
:101DC0008095709561957F4F8F4F9F4F0895E89450
:101DD00009C097FB3EF490958095709561957F4F73
:101DE0008F4F9F4F9923A9F0F92F96E9BB27939521
:101DF000F695879577956795B795F111F8CFFAF431
:101E0000BB0F11F460FF1BC06F5F7F4F8F4F9F4F61
:101E100016C0882311F096E911C0772321F09EE8BF
:101E2000872F762F05C0662371F096E8862F70E025
:101E300060E02AF09A95660F771F881FDAF7880FFF
:101E40009695879597F90895990F0008550FAA0B55
:101E5000E0E8FEEF16161706E807F907C0F01216BD
:101E60001306E407F50798F0621B730B840B950BC0
:101E700039F40A2661F0232B242B252B21F4089515
:101E80000A2609F4A140A6958FEF811D811D0895B2
:101E900097F99F6780E870E060E008959FEF80EC1D
:101EA000089500240A9416161706180609060895C0
:101EB00000240A9412161306140605060895092E26
:101EC0000394000C11F4882352F0BB0F40F4BF2B95
:101ED00011F460FF04C06F5F7F4F8F4F9F4F0895D5
:101EE00057FD9058440F551F59F05F3F71F04795CB
:101EF000880F97FB991F61F09F3F79F087950895B0
:101F0000121613061406551FF2CF4695F1DF08C0CE
:101F1000161617061806991FF1CF869571056105EB
:101F200008940895E894BB2766277727CB0197F993
:101F300008950E94240F08F48FEF08950E94B10FB6
:101F40000C945F0F0E94510F38F00E94580F20F040
:101F5000952311F00C94480F0C944E0F11240C94FF
:101F6000930F0E94700F70F3959FC1F3950F50E08F
:101F7000551F629FF001729FBB27F00DB11D639F3B
:101F8000AA27F00DB11DAA1F649F6627B00DA11DE1
:101F9000661F829F2227B00DA11D621F739FB00D87
:101FA000A11D621F839FA00D611D221F749F3327F7
:101FB000A00D611D231F849F600D211D822F762F90
:101FC0006A2F11249F5750409AF0F1F088234AF06D
:101FD000EE0FFF1FBB1F661F771F881F91505040D9
:101FE000A9F79E3F510580F00C94480F0C94930F75
:101FF0005F3FE4F3983ED4F3869577956795B79560
:10200000F795E7959F5FC1F7FE2B880F911D969579
:10201000879597F908950E94240F880B990B0895CE
:1020200097FB072E16F4009407D077FD09D00E9485
:10203000461007FC05D03EF4909581959F4F08957A
:10204000709561957F4F0895A1E21A2EAA1BBB1BC4
:10205000FD010DC0AA1FBB1FEE1FFF1FA217B30774
:10206000E407F50720F0A21BB30BE40BF50B661F8A
:10207000771F881F991F1A9469F76095709580954E
:1020800090959B01AC01BD01CF010895AA1BBB1B1C
:1020900051E107C0AA1FBB1FA617B70710F0A61B68
:1020A000B70B881F991F5A95A9F780959095BC0189
:1020B000CD010895EE0FFF1F0590F491E02D0994D6
:0420C000F894FFCFC2
:1020C40001000040001400540000000000290489AD
:1020D40003B6037604E703C503D9030000000053E5
:1020E4000526056A06FC041F050C05FD0400000016
:1020F40000DB0689036A0669066E616E00696E6616
:10210400006F7666000D0A00250043005761746570
:10211400723A20004E6F207761746572004C6F77BD
:10212400207761746572004D656469756D2077610F
:10213400746572004869676820776174657200008D
:00000001FF
