:100000000C9462000C948A000C948A000C948A0070
:100010000C948A000C948A000C948A000C948A0038
:100020000C948A000C948A000C948A000C948A0028
:100030000C948A000C948A000C948A000C948A0018
:100040000C9491060C948A000C9401070C94DB0626
:100050000C948A000C948A000C948A000C948A00F8
:100060000C948A000C948A000000000023002600F3
:10007000290000000000240027002A0000000000E2
:10008000250028002B0004040404040404040202D4
:100090000202020203030303030301020408102007
:1000A0004080010204081020010204081020000012
:1000B0000008000201000003040700000000000027
:1000C0000000330711241FBECFEFD8E0DEBFCDBF45
:1000D00011E0A0E0B1E0E6EBF2E102C005900D9284
:1000E000AA32B107D9F721E0AAE2B1E001C01D921E
:1000F000A13EB207E1F710E0C2E6D0E004C02197CC
:10010000FE010E945309C136D107C9F70E946A0750
:100110000C9459090C9400008CBD9DBD089583304A
:1001200081F028F4813099F08230A9F00895873069
:10013000A9F08830C9F08430B1F4809180008F7DBF
:1001400003C0809180008F7780938000089584B5EC
:100150008F7784BD089584B58F7DFBCF8091B000EB
:100160008F778093B00008958091B0008F7DF9CF94
:100170001F93CF93DF93282F30E0F901E255FF4F13
:100180008491F901E656FF4FD491F901EA57FF4FE8
:10019000C491CC23A9F0162F81110E948F00EC2F5F
:1001A000F0E0EE0FFF1FE458FF4FA591B4918FB719
:1001B000F894EC91111108C0D095DE23DC938FBF29
:1001C000DF91CF911F910895DE2BF8CFCF93DF936E
:1001D00090E0FC01E656FF4F24918A579F4FFC01A7
:1001E00084918823D1F090E0880F991FFC01EE588C
:1001F000FF4FA591B491FC01E458FF4FC591D491F4
:1002000061110EC09FB7F8948C91E22FE0958E2378
:100210008C932881E223E8839FBFDF91CF910895DB
:100220008FB7F894EC91E22BEC938FBFF6CF3FB7EA
:10023000F89480912C0190912D01A0912E01B09104
:100240002F0126B5A89B05C02F3F19F00196A11DCF
:10025000B11D3FBFBA2FA92F982F8827BC01CD0110
:10026000620F711D811D911D42E0660F771F881F6F
:10027000991F4A95D1F708958F929F92AF92BF929E
:10028000CF92DF92EF92FF924B015C010E94170127
:100290006B017C010E9417016C197D098E099F0971
:1002A000683E734081059105A8F321E0821A910808
:1002B000A108B10888EEC80E83E0D81EE11CF11C2D
:1002C00081149104A104B10429F7FF90EF90DF900D
:1002D000CF90BF90AF909F908F900895AF92BF92B4
:1002E000CF92DF92EF92FF920F931F93CF93DF9302
:1002F0006C017B018B01040F151FEB015E01AE1831
:10030000BF08C017D10759F06991D601ED91FC9152
:100310000190F081E02DC6010995892B79F7C5017F
:10032000DF91CF911F910F91FF90EF90DF90CF90D1
:10033000BF90AF900895FC01538D448D252F30E080
:10034000842F90E0821B930B541710F0CF960895E2
:1003500001970895FC01918D828D981761F0A28D0F
:10036000AE0FBF2FB11D5D968C91928D9F5F9F73D5
:10037000928F90E008958FEF9FEF0895FC01918D8B
:10038000828D981731F0828DE80FF11D858D90E0F8
:1003900008958FEF9FEF0895FC01918D228D892F95
:1003A00090E0805C9F4F821B91098F73992708957D
:1003B00084E391E00E94CC0121E0892B09F420E044
:1003C000822F089580E090E0892B29F00E94D801C7
:1003D00081110C9400000895FC01A48DA80FB92F81
:1003E000B11DA35ABF4F2C91848D90E001968F735D
:1003F0009927848FA689B7892C93A089B1898C917C
:10040000837080648C93938D848D981306C00288CA
:10041000F389E02D80818F7D80830895EF92FF9294
:100420000F931F93CF93DF93EC0181E0888F9B8D17
:100430008C8D98131AC0E889F989808185FF15C0D1
:100440009FB7F894EE89FF896083E889F9898081F4
:100450008370806480839FBF81E090E0DF91CF91C3
:100460001F910F91FF90EF900895F62E0B8D10E0E5
:100470000F5F1F4F0F731127E02E8C8D8E110CC054
:100480000FB607FCFACFE889F989808185FFF5CF9F
:10049000CE010E94EC01F1CFEB8DEC0FFD2FF11D91
:1004A000E35AFF4FF0829FB7F8940B8FEA89FB89DC
:1004B00080818062CFCFCF93DF93EC01888D88233A
:1004C000B9F0AA89BB89E889F9898C9185FD03C0B7
:1004D000808186FD0DC00FB607FCF7CF8C9185FF9C
:1004E000F2CF808185FFEDCFCE010E94EC01E9CFF4
:1004F000DF91CF910895BC016E5F7F4FDC01ED91DC
:10050000FC910190F081E02D40E0099591E081118E
:1005100090E0892F089508958EBD00000DB407FE68
:10052000FDCF8EB50895DF92EF92FF920F931F9348
:10053000CF93DF937C01062FD42E152F80E590E01A
:100540000E948C0060E0F70186850E94B80082E17D
:100550000E948C02CD2DD12F0C0F1D2F111DC01705
:10056000D10721F089910E948C02F9CF61E0F70157
:100570008685DF91CF911F910F91FF90EF90DF90D3
:100580000C94B8001F93CF93DF93EC01162F80E5F6
:1005900090E00E948C0060E08E850E94B800812F60
:1005A00080680E948C0280E00E948C02182F61E01B
:1005B0008E850E94B800812FDF91CF911F91089501
:1005C0000F931F93CF93DF93EC01062F142F80E539
:1005D00090E00E948C0060E08E850E94B800802F21
:1005E0000E948C02812F0E948C0261E08E85DF9137
:1005F000CF911F910F910C94B800CF92DF92EF92A0
:10060000FF920F931F93CF93DF93EC016B01F42EB6
:10061000890140E062E00E94E00244E06AE0CE012D
:100620000E94E00240E864E1CE010E94E002A601DF
:100630006F2DCE010E94930243E062E0CE010E9442
:10064000E0028FB7F894C0903001D0903101E09073
:100650003201F09033018FBF89E5C80ED11CE11C37
:10066000F11C6AE0CE010E94C20282FF1BC040E082
:1006700062E0CE010E94E00264E4CE010E94C20268
:10068000F801808362E4CE010E94C202F8018183F6
:1006900080E0DF91CF911F910F91FF90EF90DF905D
:1006A000CF9008952FB7F894809130019091310147
:1006B000A0913201B09133012FBF8C159D05AE057D
:1006C000BF0578F283E0E5CF2F923F924F925F9281
:1006D0006F927F928F929F92AF92CF92DF92EF9222
:1006E000FF920F931F93CF93DF9300D0CDB7DEB768
:1006F0004C012B01D42E390180E0E114F10411F0FA
:10070000F70180813C2C329490EF3922380E40E082
:1007100062E0C4010E94E0024FE768E0C4010E9469
:10072000E00240E864E1C4010E94E002A2016D2DF4
:10073000C4010E949302432D6AE1C4010E94E002B9
:100740004CE062E0C4010E94E0026AE1C4010E9440
:10075000C202482F40686AE1C4010E94E0028FB7DC
:10076000F894209030013090310140903201509047
:1007700033018FBFF4E22F0E311C411C511C68E085
:10078000C4010E94C202982F907309F0C0C080FF7C
:1007900015C083E00F900F90DF91CF911F910F91C3
:1007A000FF90EF90DF90CF90AF909F908F907F90D1
:1007B0006F905F904F903F902F9008952FB7F894CF
:1007C0008091300190913101A0913201B0913301BB
:1007D0002FBF82159305A405B50588F2DACF611401
:1007E000710409F469C00115110509F465C064E1DB
:1007F000C4010E94C202382EF8018081831508F4DA
:1008000080C030823320E1F180E590E00E948C00CE
:1008100060E0F40186850E94B8003A9482E90E9463
:100820008C02CC20B1F08FEF90E09C0102C0220F2F
:10083000331FCA94E2F7690182E90E948C029C2D61
:100840009095F301208192238C21982B9083CC24C6
:10085000C39423014C0C511CC31440F482E90E9440
:100860008C02F20181932F01C394F6CF80E00E94A5
:100870008C02F201808361E0F40186850E94B80059
:1008800068E1C4010E94C2028770E114F10411F012
:10089000F701808323FC37C061147104B1F10115A5
:1008A000110599F1AA2089F1F8014081413031F414
:1008B000843029F58FEF6ECF80E0ECCF4230F8F036
:1008C00081111DC042509E012F5F3F4FB301C401F3
:1008D0000E94FD0281115ECFF8019081690E711CAA
:1008E000F301329720819981291309C0F1E06F1A31
:1008F0007108F30120819A81291709F44BCF87E011
:1009000049CF84E047CF82E045CF80E043CF6CE021
:10091000C4010E94C202282E837109F460CF81E0D5
:1009200039CF0F931F93CF93DF938C01D62FC42F12
:100930000E94C202C0954C2F48236D2FC801DF9141
:10094000CF911F910F910C94E0028F929F92AF92E2
:10095000CF92EF92FF920F931F93CF93DF9300D02C
:1009600000D01F92CDB7DEB74C0182E08D8340E00E
:1009700064E2C4010E94E00240E066E2C4010E9419
:10098000E00246E268E4C4010E94E00286E28B8352
:100990008D818230B0F140E86CE1C4010E94910485
:1009A00087E08C83A12CC12CCE0104967C018E01A2
:1009B0000B5F1F4F9E012F5F3F4F41E0BE016D5FF8
:1009C0007F4FC4010E946403982F811117C08D814D
:1009D0008230B9F48C81811114C081E00F900F90A6
:1009E0000F900F900F90DF91CF911F910F91FF907B
:1009F000EF90CF90AF909F908F90089581E09230CC
:100A000069F380E0EBCF2F923F924F925F926F920B
:100A10007F928F929F92AF92BF92CF92DF92EF928E
:100A2000FF920F931F93CF93DF93CDB7DEB72D9730
:100A30000FB6F894DEBF0FBECDBF16E0413508F00B
:100A400045C1342E4B013C0140E86CE10E94910409
:100A500083E98983332029F081E0F4019081953086
:100A600008F480E022242394B12C9B2D990F990F38
:100A7000990FD32CD91AD7FCD12C32E0882319F046
:100A800098E89B8333E021E09D2D977009F420E0E6
:100A90009D2D959595959595290FC9F094E0811117
:100AA00093E0291708F4922FEB2DF0E03196E80D32
:100AB000F91D232F4191A1E0B0E0AC0FBD1FA20FA3
:100AC000B11D4C932F5F422F431B491798F3882386
:100AD00011F0F8E0DF0E8FE18D150CF082C090E789
:100AE0009A838B819C8189279D8189279E81892773
:100AF0008F839E01285F3F4F47E0BE016F5F7F4FAE
:100B0000C3010E94FD02182F8111E0C01A86E3E0A4
:100B1000EB87DC86CE0107962C0199E09D87CA847D
:100B20004C2D4295407F4C0D6AE1C3010E94E002CA
:100B3000A12CCE010A967C018E01055F1F4F920108
:100B40004D85BE016F5F7F4FC3010E946403182F64
:100B5000823009F065C06CE1C3010E94C20285FDCC
:100B6000B5C08F7109F480E2282F30E04D2DDD0CE7
:100B7000550B421753070CF09DC0D82EE82FE59572
:100B8000E595E595EF5F982F977081E009F480E097
:100B9000E80F81E090E08C0F9D1F8E0F911DFC01EE
:100BA000215031092770332781E090E002C0880F7F
:100BB000991F2A95E2F79C018081822B80838BCF3D
:100BC00085E98983332031F081E0F4019081983008
:100BD00008F04BCF80E049CF87E9898326E0B22E29
:100BE000F9CF9D2D97709A878D2D85958595859543
:100BF0008E5F282F2295207F290F2A8321E09111D3
:100C000001C020E0280F2D8744244394512C4C0E22
:100C10005D1E480E511CE9E0E81BEB87DC867FCFA8
:100C2000811154C080E2D82E9C8590320CF457CFAD
:100C30008B81883809F040C083E093E0EB2DF0E031
:100C40003196E80DF91D980FA1E0B0E0AC0FBD1F83
:100C5000A80FB11D2C9121938F5F8913F5CFBB8411
:100C6000E3E0BE124DC08A8581114AC09E012D5F0E
:100C70003F4F41E0B201C3010E94FD02182F8111D4
:100C800025C09B81F201818198133CC09C818281A7
:100C9000981338C0808182FF12C02394F2E02F168F
:100CA00009F48ECF83E0281609F496CF91E0291637
:100CB00009F4CECE15E00AC082E094E0BFCFF40183
:100CC0008387822D880F820D8F5F8083812F2D96E1
:100CD0000FB6F894DEBF0FBECDBFDF91CF911F914D
:100CE0000F91FF90EF90DF90CF90BF90AF909F90CB
:100CF0008F907F906F905F904F903F902F900895CE
:100D000011E0E4CF17E0E2CFFC0101900020E9F709
:100D10003197AF01481B590BBC0184E391E00C945F
:100D20006E011F920F920FB60F9211242F933F93D3
:100D30008F939F93AF93BF93809130019091310136
:100D4000A0913201B091330130912B0123E0230FA8
:100D50002D3758F50196A11DB11D20932B018093CD
:100D6000300190933101A0933201B093330180910F
:100D70002C0190912D01A0912E01B0912F0101968F
:100D8000A11DB11D80932C0190932D01A0932E01E4
:100D9000B0932F01BF91AF919F918F913F912F9170
:100DA0000F900FBE0F901F90189526E8230F029604
:100DB000A11DB11DD2CF1F920F920FB60F92112419
:100DC0002F933F934F935F936F937F938F939F9353
:100DD000AF93BF93EF93FF9384E391E00E94EC0104
:100DE000FF91EF91BF91AF919F918F917F916F9103
:100DF0005F914F913F912F910F900FBE0F901F90D9
:100E000018951F920F920FB60F9211242F938F9364
:100E10009F93EF93FF93E0914401F091450180810E
:100E2000E0914A01F0914B0182FD1BC090818091BD
:100E30004D018F5F8F7320914E01821741F0E09139
:100E40004D01F0E0EC5CFE4F958F80934D01FF91DA
:100E5000EF919F918F912F910F900FBE0F901F9048
:100E600018958081F4CFE4E3F1E01382128288EEDA
:100E700093E0A0E0B0E084839583A683B78384E009
:100E800091E09183808385EC90E09587848784EC62
:100E900090E09787868780EC90E0918B808B81EC47
:100EA00090E0938B828B82EC90E0958B848B86EC28
:100EB00090E0978B868B118E128E138E148EE1ED3F
:100EC000F1E086E191E0918380838AE0868789E082
:100ED00087870895CF93DF93CDB7DEB7A1970FB67D
:100EE000F894DEBF0FBECDBF789484B5826084BD18
:100EF00084B5816084BD85B5826085BD85B581601E
:100F000085BD80916E00816080936E00109281009B
:100F10008091810082608093810080918100816056
:100F20008093810080918000816080938000809117
:100F3000B10084608093B1008091B00081608093A3
:100F4000B00080917A00846080937A0080917A006A
:100F5000826080937A0080917A00816080937A0029
:100F600080917A00806880937A001092C100E091AD
:100F70004401F091450182E08083E0914001F091CD
:100F800041011082E0914201F09143018FEC808396
:100F900010924C01E0914801F091490186E0808374
:100FA000E0914601F0914701808180618083E0916A
:100FB0004601F0914701808188608083E09146017D
:100FC000F0914701808180688083E0914601F09133
:100FD000470180818F7D80831FB7F89480912A011B
:100FE000811127C0E0E9F0E08491E4EAF0E0949117
:100FF000E82FF0E0EE0FFF1FEE58FF4FA591B491E0
:10100000EC91E92321F461E08AE00E94B80061E0FC
:101010008AE00E94E6008CB580618CBD8CB580644E
:101020008CBD61E08DE00E94E60061E08BE00E94F3
:10103000E60080912A018F5F80932A011FBF61E043
:101040008091DF010E94E60061E08091DF010E9453
:10105000B8008091E0018F3F09F4D1C060E00E94A8
:10106000E6002091E00130E0F901E255FF4F849164
:10107000F901E656FF4F0491F901EA57FF4F149129
:101080001111AEC061E08091E0010E94E60060E0D5
:101090008091E0010E94B80083E090E00197F1F7B1
:1010A00061E08091E0010E94B80062E370E080E0BE
:1010B00090E00E943C0140E064E281ED91E00E94FA
:1010C000E00240E066E281ED91E00E94E00246E24B
:1010D00068E481ED91E00E94E00240E864E581ED82
:1010E00091E00E94E00249EA66E581ED91E00E940C
:1010F000E00243E068E581ED91E00E94E00248EE05
:101100006AE581ED91E00E94E00240E46AE281ED4F
:1011100091E00E94E0024DE362E281ED91E00E94E5
:10112000E00268E281ED91E00E94C202982F937084
:10113000933039F0482F436068E281ED91E00E94DE
:10114000E0028CE191E00E94840682E291E00E943C
:10115000840630E0832E30E0932E40E5D42E81EDDE
:1011600091E00E94A504882309F491C081ED91E0EB
:101170000E947B02882309F48AC085E291E00E94E4
:101180008406F12C8091D301F81608F051C0EF2DA0
:10119000F0E0EF52FE4F438150E070E060E019A2B2
:1011A000CE0181968A019B010F70112722273327D8
:1011B00024E076956795579547952A95D1F70A309B
:1011C000ACF5005DFC010293CF01411551056105AD
:1011D000710541F7EF2B11F00E948406F394D2CFF2
:1011E00081110E948F00E12FF0E0EE0FFF1FE85900
:1011F000FF4FA591B491EC910E2309F443CF4FE03A
:1012000062E081ED91E00E94E00213E062E370E0B1
:1012100080E090E00E943C0162E081ED91E00E945C
:10122000C20284FF48CF115089F745CF095CCACF6D
:1012300082E291E00E948406D9821A829E012D5F8B
:101240003F4F42E0BE016F5F7F4F81ED91E00E9412
:10125000FD02811110C0A12CC12CF12CE12C10E059
:1012600000E030E020E044E0BE016F5F7F4F81EDA1
:1012700091E00E94640348E060E181ED91E00E940A
:1012800091046CE271E080E090E00E943C018114E6
:10129000910409F464CF0E94D801882309F45FCF38
:1012A0000E9400005CCFEE0FFF1F0590F491E02D2F
:0612B0000994F894FFCF41
:1012B600000000000E026E019B015B02CC01AA0138
:1012C600BE01000000000305A5047B02726561648F
:0A12D60079000D0A005549443A0062
:00000001FF
